:020000040000FA
:10000000FF0E506EFF0E516E260E526E5D0E536E39
:1000100002D84FEF00F0100E7A6E706A716A726A41
:10002000736A50C060F051C061F052C062F053C0BA
:1000300063F018D871505324536E70505220526E92
:10004000D8905232533252505E622CEF00F053502F
:100050005F622CEF00F0120052C05EF053C05FF000
:100060000BEF00F061366036733672366350735EA4
:100070006250725A02E346EF00F0713670367190AA
:1000800063507326625072224BEF00F07136703667
:0E00900071804BEF00F07A2E32EF00F012007C
:02009E00000060
:020000040030CA
:0100010008F6
:010003001EDE
:00000001FF
